:020000040800F2
:100000000080012065020008B502000843020008D4
:10001000B5020008B5020008B502000800000000A3
:10002000000000000000000000000000B502000811
:10003000B502000800000000B5020008B502000883
:10004000B5020008B5020008B5020008B5020008B4
:10005000B5020008B5020008B5020008B5020008A4
:10006000B5020008B5020008B5020008B502000894
:10007000B5020008B5020008B5020008B502000884
:10008000B5020008B5020008B50200080000000033
:10009000000000000000000000000000B5020008A1
:1000A000B5020008B5020008B5020008B502000854
:1000B000B5020008B5020008B5020008B502000844
:1000C000B5020008B5020008B5020008B502000834
:1000D000B5020008B5020008B502000800000000E3
:1000E00045020008B5020008B50200080000000043
:1000F000000000000000000000000000B502000841
:1001000000000000B5020008B5020008B5020008B2
:1001100000000000000000000000000000000000DF
:10012000B5020008B5020008B5020008B5020008D3
:10013000B502000800000000000000000000000000
:10014000000000000000000000000000B5020008F0
:10015000B5020008B5020008B5020008B5020008A3
:10016000B5020008B5020008000000000000000011
:10017000000000000000000000000000000000007F
:1001800000000000B50200080000000000000000B0
:04019000B5020008AC
:1001940010B5054C237833B9044B13B10448AFF3BD
:1001A40000800123237010BD000000200000000027
:1001B4000003000808B5034B1BB103490348AFF320
:1001C400008008BD000000000400002000030008B7
:1001D400154B1A6B42F001021A631A6B42F00402C7
:1001E4001A635A6C42F480425A64104A136843F406
:1001F4008063136002F50062D36843F08073D360B8
:100204000B4BDA6842F40052DA601A6842F4005286
:100214001A60084A536943F020035361064B4FF4B4
:1002240080725A60704700BF0038024000000240EC
:10023400003C01400038014000E100E0FEE7704767
:10024400054B5A694FF400525A61044A536983F0CA
:1002540020035361704700BF003C0140000002408E
:10026400DFF834D00D480E490E4A002302E0D4587A
:10027400C4500433C4188C42F9D30B4A0B4C0023EA
:1002840001E013600432A242FBD3FFF7A1FF00F0A8
:1002940011F8FFF7D3FF7047008001200000002011
:1002A4000000002020030008000000201C000020A3
:1002B400FEE7000070B50D4D0D4C641BA410002624
:1002C400A64209D10B4D0C4C00F018F8641BA41085
:1002D4000026A64205D170BD55F8043B9847013667
:1002E400EEE755F8043B98470136F2E71803000897
:1002F40018030008180300081C030008F8B500BF21
:10030400F8BC08BC9E467047F8B500BFF8BC08BCF2
:040314009E4670474A
:04031800B90100081F
:04031C00950100083F
:040000050800026588
:00000001FF
